{
  "_format": "hh-sol-artifact-1",
  "contractName": "GameCoin",
  "sourceName": "contracts/GameCoin.sol",
  "abi": [
    {
      "inputs": [],
      "stateMutability": "nonpayable",
      "type": "constructor"
    },
    {
      "anonymous": false,
      "inputs": [
        {
          "indexed": true,
          "internalType": "address",
          "name": "owner",
          "type": "address"
        },
        {
          "indexed": true,
          "internalType": "address",
          "name": "spender",
          "type": "address"
        },
        {
          "indexed": false,
          "internalType": "uint256",
          "name": "value",
          "type": "uint256"
        }
      ],
      "name": "Approval",
      "type": "event"
    },
    {
      "anonymous": false,
      "inputs": [
        {
          "indexed": true,
          "internalType": "address",
          "name": "previousOwner",
          "type": "address"
        },
        {
          "indexed": true,
          "internalType": "address",
          "name": "newOwner",
          "type": "address"
        }
      ],
      "name": "OwnershipTransferred",
      "type": "event"
    },
    {
      "anonymous": false,
      "inputs": [
        {
          "indexed": true,
          "internalType": "address",
          "name": "from",
          "type": "address"
        },
        {
          "indexed": true,
          "internalType": "address",
          "name": "to",
          "type": "address"
        },
        {
          "indexed": false,
          "internalType": "uint256",
          "name": "value",
          "type": "uint256"
        }
      ],
      "name": "Transfer",
      "type": "event"
    },
    {
      "anonymous": false,
      "inputs": [
        {
          "indexed": true,
          "internalType": "address",
          "name": "owner",
          "type": "address"
        },
        {
          "indexed": false,
          "internalType": "uint256",
          "name": "amount",
          "type": "uint256"
        },
        {
          "indexed": false,
          "internalType": "string",
          "name": "message",
          "type": "string"
        }
      ],
      "name": "additionalTokensMinted",
      "type": "event"
    },
    {
      "anonymous": false,
      "inputs": [
        {
          "indexed": true,
          "internalType": "address",
          "name": "owner",
          "type": "address"
        },
        {
          "indexed": false,
          "internalType": "uint256",
          "name": "amount",
          "type": "uint256"
        },
        {
          "indexed": false,
          "internalType": "string",
          "name": "message",
          "type": "string"
        }
      ],
      "name": "tokensBurned",
      "type": "event"
    },
    {
      "anonymous": false,
      "inputs": [
        {
          "indexed": true,
          "internalType": "address",
          "name": "owner",
          "type": "address"
        },
        {
          "indexed": false,
          "internalType": "uint256",
          "name": "amount",
          "type": "uint256"
        },
        {
          "indexed": false,
          "internalType": "string",
          "name": "message",
          "type": "string"
        }
      ],
      "name": "tokensMinted",
      "type": "event"
    },
    {
      "inputs": [],
      "name": "ShopName",
      "outputs": [
        {
          "internalType": "string",
          "name": "",
          "type": "string"
        }
      ],
      "stateMutability": "view",
      "type": "function"
    },
    {
      "inputs": [
        {
          "internalType": "address",
          "name": "owner",
          "type": "address"
        },
        {
          "internalType": "address",
          "name": "spender",
          "type": "address"
        }
      ],
      "name": "allowance",
      "outputs": [
        {
          "internalType": "uint256",
          "name": "",
          "type": "uint256"
        }
      ],
      "stateMutability": "view",
      "type": "function"
    },
    {
      "inputs": [
        {
          "internalType": "address",
          "name": "spender",
          "type": "address"
        },
        {
          "internalType": "uint256",
          "name": "amount",
          "type": "uint256"
        }
      ],
      "name": "approve",
      "outputs": [
        {
          "internalType": "bool",
          "name": "",
          "type": "bool"
        }
      ],
      "stateMutability": "nonpayable",
      "type": "function"
    },
    {
      "inputs": [
        {
          "internalType": "address",
          "name": "account",
          "type": "address"
        }
      ],
      "name": "balanceOf",
      "outputs": [
        {
          "internalType": "uint256",
          "name": "",
          "type": "uint256"
        }
      ],
      "stateMutability": "view",
      "type": "function"
    },
    {
      "inputs": [
        {
          "internalType": "uint256",
          "name": "amount",
          "type": "uint256"
        }
      ],
      "name": "burn",
      "outputs": [],
      "stateMutability": "nonpayable",
      "type": "function"
    },
    {
      "inputs": [
        {
          "internalType": "address",
          "name": "account",
          "type": "address"
        },
        {
          "internalType": "uint256",
          "name": "amount",
          "type": "uint256"
        }
      ],
      "name": "burnFrom",
      "outputs": [],
      "stateMutability": "nonpayable",
      "type": "function"
    },
    {
      "inputs": [
        {
          "internalType": "address",
          "name": "to",
          "type": "address"
        },
        {
          "internalType": "uint256",
          "name": "amount",
          "type": "uint256"
        }
      ],
      "name": "customer_mint",
      "outputs": [],
      "stateMutability": "nonpayable",
      "type": "function"
    },
    {
      "inputs": [],
      "name": "decimals",
      "outputs": [
        {
          "internalType": "uint8",
          "name": "",
          "type": "uint8"
        }
      ],
      "stateMutability": "view",
      "type": "function"
    },
    {
      "inputs": [
        {
          "internalType": "address",
          "name": "spender",
          "type": "address"
        },
        {
          "internalType": "uint256",
          "name": "subtractedValue",
          "type": "uint256"
        }
      ],
      "name": "decreaseAllowance",
      "outputs": [
        {
          "internalType": "bool",
          "name": "",
          "type": "bool"
        }
      ],
      "stateMutability": "nonpayable",
      "type": "function"
    },
    {
      "inputs": [
        {
          "internalType": "address",
          "name": "spender",
          "type": "address"
        },
        {
          "internalType": "uint256",
          "name": "addedValue",
          "type": "uint256"
        }
      ],
      "name": "increaseAllowance",
      "outputs": [
        {
          "internalType": "bool",
          "name": "",
          "type": "bool"
        }
      ],
      "stateMutability": "nonpayable",
      "type": "function"
    },
    {
      "inputs": [
        {
          "internalType": "address",
          "name": "to",
          "type": "address"
        },
        {
          "internalType": "uint256",
          "name": "amount",
          "type": "uint256"
        }
      ],
      "name": "mint",
      "outputs": [],
      "stateMutability": "nonpayable",
      "type": "function"
    },
    {
      "inputs": [],
      "name": "name",
      "outputs": [
        {
          "internalType": "string",
          "name": "",
          "type": "string"
        }
      ],
      "stateMutability": "view",
      "type": "function"
    },
    {
      "inputs": [],
      "name": "owner",
      "outputs": [
        {
          "internalType": "address",
          "name": "",
          "type": "address"
        }
      ],
      "stateMutability": "view",
      "type": "function"
    },
    {
      "inputs": [],
      "name": "renounceOwnership",
      "outputs": [],
      "stateMutability": "nonpayable",
      "type": "function"
    },
    {
      "inputs": [
        {
          "internalType": "string",
          "name": "_name",
          "type": "string"
        }
      ],
      "name": "setShopName",
      "outputs": [],
      "stateMutability": "nonpayable",
      "type": "function"
    },
    {
      "inputs": [],
      "name": "symbol",
      "outputs": [
        {
          "internalType": "string",
          "name": "",
          "type": "string"
        }
      ],
      "stateMutability": "view",
      "type": "function"
    },
    {
      "inputs": [],
      "name": "totalSupply",
      "outputs": [
        {
          "internalType": "uint256",
          "name": "",
          "type": "uint256"
        }
      ],
      "stateMutability": "view",
      "type": "function"
    },
    {
      "inputs": [
        {
          "internalType": "address",
          "name": "to",
          "type": "address"
        },
        {
          "internalType": "uint256",
          "name": "amount",
          "type": "uint256"
        }
      ],
      "name": "transfer",
      "outputs": [
        {
          "internalType": "bool",
          "name": "",
          "type": "bool"
        }
      ],
      "stateMutability": "nonpayable",
      "type": "function"
    },
    {
      "inputs": [
        {
          "internalType": "address",
          "name": "from",
          "type": "address"
        },
        {
          "internalType": "address",
          "name": "to",
          "type": "address"
        },
        {
          "internalType": "uint256",
          "name": "amount",
          "type": "uint256"
        }
      ],
      "name": "transferFrom",
      "outputs": [
        {
          "internalType": "bool",
          "name": "",
          "type": "bool"
        }
      ],
      "stateMutability": "nonpayable",
      "type": "function"
    },
    {
      "inputs": [
        {
          "internalType": "address",
          "name": "newOwner",
          "type": "address"
        }
      ],
      "name": "transferOwnership",
      "outputs": [],
      "stateMutability": "nonpayable",
      "type": "function"
    }
  ],
  "bytecode": "0x60806040523480156200001157600080fd5b506040518060400160405280600881526020017f47616d65436f696e0000000000000000000000000000000000000000000000008152506040518060400160405280600381526020017f474d430000000000000000000000000000000000000000000000000000000000815250816003908051906020019062000096929190620003ec565b508060049080519060200190620000af929190620003ec565b505050620000d2620000c66200019260201b60201c565b6200019a60201b60201c565b6200011033620000e76200026060201b60201c565b600a620000f591906200066b565b6103e8620001049190620007a8565b6200026960201b60201c565b3373ffffffffffffffffffffffffffffffffffffffff167f8d54cf4376f9d10619fbb6aded215dcdffc1b80415e0750f5064018278632d07620001586200026060201b60201c565b600a6200016691906200066b565b6103e8620001759190620007a8565b60405162000184919062000570565b60405180910390a2620008c1565b600033905090565b6000600560009054906101000a900473ffffffffffffffffffffffffffffffffffffffff16905081600560006101000a81548173ffffffffffffffffffffffffffffffffffffffff021916908373ffffffffffffffffffffffffffffffffffffffff1602179055508173ffffffffffffffffffffffffffffffffffffffff168173ffffffffffffffffffffffffffffffffffffffff167f8be0079c531659141344cd1fd0a4f28419497f9722a3daafe3b4186f6b6457e060405160405180910390a35050565b60006012905090565b600073ffffffffffffffffffffffffffffffffffffffff168273ffffffffffffffffffffffffffffffffffffffff161415620002dc576040517f08c379a0000000000000000000000000000000000000000000000000000000008152600401620002d39062000531565b60405180910390fd5b620002f060008383620003e260201b60201c565b8060026000828254620003049190620005b3565b92505081905550806000808473ffffffffffffffffffffffffffffffffffffffff1673ffffffffffffffffffffffffffffffffffffffff16815260200190815260200160002060008282546200035b9190620005b3565b925050819055508173ffffffffffffffffffffffffffffffffffffffff16600073ffffffffffffffffffffffffffffffffffffffff167fddf252ad1be2c89b69c2b068fc378daa952ba7f163c4a11628f55a4df523b3ef83604051620003c2919062000553565b60405180910390a3620003de60008383620003e760201b60201c565b5050565b505050565b505050565b828054620003fa9062000820565b90600052602060002090601f0160209004810192826200041e57600085556200046a565b82601f106200043957805160ff19168380011785556200046a565b828001600101855582156200046a579182015b82811115620004695782518255916020019190600101906200044c565b5b5090506200047991906200047d565b5090565b5b80821115620004985760008160009055506001016200047e565b5090565b6000620004ab602083620005a2565b91507f496e697469616c20737570706c79206f6620746f6b656e73206d696e7465642e6000830152602082019050919050565b6000620004ed601f83620005a2565b91507f45524332303a206d696e7420746f20746865207a65726f2061646472657373006000830152602082019050919050565b6200052b8162000809565b82525050565b600060208201905081810360008301526200054c81620004de565b9050919050565b60006020820190506200056a600083018462000520565b92915050565b600060408201905062000587600083018462000520565b81810360208301526200059a816200049c565b905092915050565b600082825260208201905092915050565b6000620005c08262000809565b9150620005cd8362000809565b9250827fffffffffffffffffffffffffffffffffffffffffffffffffffffffffffffffff0382111562000605576200060462000856565b5b828201905092915050565b6000808291508390505b600185111562000662578086048111156200063a576200063962000856565b5b60018516156200064a5780820291505b80810290506200065a85620008b4565b94506200061a565b94509492505050565b6000620006788262000809565b9150620006858362000813565b9250620006b47fffffffffffffffffffffffffffffffffffffffffffffffffffffffffffffffff8484620006bc565b905092915050565b600082620006ce5760019050620007a1565b81620006de5760009050620007a1565b8160018114620006f75760028114620007025762000738565b6001915050620007a1565b60ff84111562000717576200071662000856565b5b8360020a91508482111562000731576200073062000856565b5b50620007a1565b5060208310610133831016604e8410600b8410161715620007725782820a9050838111156200076c576200076b62000856565b5b620007a1565b62000781848484600162000610565b925090508184048111156200079b576200079a62000856565b5b81810290505b9392505050565b6000620007b58262000809565b9150620007c28362000809565b9250817fffffffffffffffffffffffffffffffffffffffffffffffffffffffffffffffff0483118215151615620007fe57620007fd62000856565b5b828202905092915050565b6000819050919050565b600060ff82169050919050565b600060028204905060018216806200083957607f821691505b6020821081141562000850576200084f62000885565b5b50919050565b7f4e487b7100000000000000000000000000000000000000000000000000000000600052601160045260246000fd5b7f4e487b7100000000000000000000000000000000000000000000000000000000600052602260045260246000fd5b60008160011c9050919050565b6124ae80620008d16000396000f3fe608060405234801561001057600080fd5b506004361061012c5760003560e01c8063715018a6116100ad57806395d89b411161007157806395d89b411461031d578063a457c2d71461033b578063a9059cbb1461036b578063dd62ed3e1461039b578063f2fde38b146103cb5761012c565b8063715018a61461029f57806376906e58146102a957806379cc6790146102c757806382d23a50146102e35780638da5cb5b146102ff5761012c565b8063313ce567116100f4578063313ce567146101e9578063395093511461020757806340c10f191461023757806342966c681461025357806370a082311461026f5761012c565b806301e95a221461013157806306fdde031461014d578063095ea7b31461016b57806318160ddd1461019b57806323b872dd146101b9575b600080fd5b61014b600480360381019061014691906115e3565b6103e7565b005b610155610513565b6040516101629190611d62565b60405180910390f35b610185600480360381019061018091906115e3565b6105a5565b6040516101929190611d47565b60405180910390f35b6101a36105c8565b6040516101b09190611f44565b60405180910390f35b6101d360048036038101906101ce9190611594565b6105d2565b6040516101e09190611d47565b60405180910390f35b6101f1610601565b6040516101fe9190611fe9565b60405180910390f35b610221600480360381019061021c91906115e3565b61060a565b60405161022e9190611d47565b60405180910390f35b610251600480360381019061024c91906115e3565b610641565b005b61026d60048036038101906102689190611660565b6106a5565b005b6102896004803603810190610284919061152f565b610708565b6040516102969190611f44565b60405180910390f35b6102a7610750565b005b6102b1610764565b6040516102be9190611d62565b60405180910390f35b6102e160048036038101906102dc91906115e3565b6107f2565b005b6102fd60048036038101906102f8919061161f565b610812565b005b610307610834565b6040516103149190611d2c565b60405180910390f35b61032561085e565b6040516103329190611d62565b60405180910390f35b610355600480360381019061035091906115e3565b6108f0565b6040516103629190611d47565b60405180910390f35b610385600480360381019061038091906115e3565b610967565b6040516103929190611d47565b60405180910390f35b6103b560048036038101906103b09190611558565b61098a565b6040516103c29190611f44565b60405180910390f35b6103e560048036038101906103e0919061152f565b610a11565b005b6103ef610601565b600a6103fb919061212a565b600a6104079190612248565b811115610449576040517f08c379a000000000000000000000000000000000000000000000000000000000815260040161044090611e44565b60405180910390fd5b8173ffffffffffffffffffffffffffffffffffffffff163373ffffffffffffffffffffffffffffffffffffffff16146104b7576040517f08c379a00000000000000000000000000000000000000000000000000000000081526004016104ae90611ec4565b60405180910390fd5b6104c18282610a95565b3373ffffffffffffffffffffffffffffffffffffffff167fc31b604bce0888a4f5e36e76eee33516a5fff7a5d58ac7dcead8174c323eebf2826040516105079190611f5f565b60405180910390a25050565b6060600380546105229061236d565b80601f016020809104026020016040519081016040528092919081815260200182805461054e9061236d565b801561059b5780601f106105705761010080835404028352916020019161059b565b820191906000526020600020905b81548152906001019060200180831161057e57829003601f168201915b5050505050905090565b6000806105b0610bf5565b90506105bd818585610bfd565b600191505092915050565b6000600254905090565b6000806105dd610bf5565b90506105ea858285610dc8565b6105f5858585610e54565b60019150509392505050565b60006012905090565b600080610615610bf5565b9050610636818585610627858961098a565b6106319190612081565b610bfd565b600191505092915050565b6106496110d5565b6106538282610a95565b3373ffffffffffffffffffffffffffffffffffffffff167fc31b604bce0888a4f5e36e76eee33516a5fff7a5d58ac7dcead8174c323eebf2826040516106999190611fbb565b60405180910390a25050565b6106ad6110d5565b6106b73382611153565b3373ffffffffffffffffffffffffffffffffffffffff167fcde716650b13ae41f235d679e62500d67355bc41802e6cfc087b67a7850d975f826040516106fd9190611f8d565b60405180910390a250565b60008060008373ffffffffffffffffffffffffffffffffffffffff1673ffffffffffffffffffffffffffffffffffffffff168152602001908152602001600020549050919050565b6107586110d5565b610762600061132a565b565b600680546107719061236d565b80601f016020809104026020016040519081016040528092919081815260200182805461079d9061236d565b80156107ea5780601f106107bf576101008083540402835291602001916107ea565b820191906000526020600020905b8154815290600101906020018083116107cd57829003601f168201915b505050505081565b610804826107fe610bf5565b83610dc8565b61080e8282611153565b5050565b61081a6110d5565b80600690805190602001906108309291906113fa565b5050565b6000600560009054906101000a900473ffffffffffffffffffffffffffffffffffffffff16905090565b60606004805461086d9061236d565b80601f01602080910402602001604051908101604052809291908181526020018280546108999061236d565b80156108e65780601f106108bb576101008083540402835291602001916108e6565b820191906000526020600020905b8154815290600101906020018083116108c957829003601f168201915b5050505050905090565b6000806108fb610bf5565b90506000610909828661098a565b90508381101561094e576040517f08c379a000000000000000000000000000000000000000000000000000000000815260040161094590611f04565b60405180910390fd5b61095b8286868403610bfd565b60019250505092915050565b600080610972610bf5565b905061097f818585610e54565b600191505092915050565b6000600160008473ffffffffffffffffffffffffffffffffffffffff1673ffffffffffffffffffffffffffffffffffffffff16815260200190815260200160002060008373ffffffffffffffffffffffffffffffffffffffff1673ffffffffffffffffffffffffffffffffffffffff16815260200190815260200160002054905092915050565b610a196110d5565b600073ffffffffffffffffffffffffffffffffffffffff168173ffffffffffffffffffffffffffffffffffffffff161415610a89576040517f08c379a0000000000000000000000000000000000000000000000000000000008152600401610a8090611dc4565b60405180910390fd5b610a928161132a565b50565b600073ffffffffffffffffffffffffffffffffffffffff168273ffffffffffffffffffffffffffffffffffffffff161415610b05576040517f08c379a0000000000000000000000000000000000000000000000000000000008152600401610afc90611f24565b60405180910390fd5b610b11600083836113f0565b8060026000828254610b239190612081565b92505081905550806000808473ffffffffffffffffffffffffffffffffffffffff1673ffffffffffffffffffffffffffffffffffffffff1681526020019081526020016000206000828254610b789190612081565b925050819055508173ffffffffffffffffffffffffffffffffffffffff16600073ffffffffffffffffffffffffffffffffffffffff167fddf252ad1be2c89b69c2b068fc378daa952ba7f163c4a11628f55a4df523b3ef83604051610bdd9190611f44565b60405180910390a3610bf1600083836113f5565b5050565b600033905090565b600073ffffffffffffffffffffffffffffffffffffffff168373ffffffffffffffffffffffffffffffffffffffff161415610c6d576040517f08c379a0000000000000000000000000000000000000000000000000000000008152600401610c6490611ee4565b60405180910390fd5b600073ffffffffffffffffffffffffffffffffffffffff168273ffffffffffffffffffffffffffffffffffffffff161415610cdd576040517f08c379a0000000000000000000000000000000000000000000000000000000008152600401610cd490611de4565b60405180910390fd5b80600160008573ffffffffffffffffffffffffffffffffffffffff1673ffffffffffffffffffffffffffffffffffffffff16815260200190815260200160002060008473ffffffffffffffffffffffffffffffffffffffff1673ffffffffffffffffffffffffffffffffffffffff168152602001908152602001600020819055508173ffffffffffffffffffffffffffffffffffffffff168373ffffffffffffffffffffffffffffffffffffffff167f8c5be1e5ebec7d5bd14f71427d1e84f3dd0314c0f7b2291e5b200ac8c7c3b92583604051610dbb9190611f44565b60405180910390a3505050565b6000610dd4848461098a565b90507fffffffffffffffffffffffffffffffffffffffffffffffffffffffffffffffff8114610e4e5781811015610e40576040517f08c379a0000000000000000000000000000000000000000000000000000000008152600401610e3790611e04565b60405180910390fd5b610e4d8484848403610bfd565b5b50505050565b600073ffffffffffffffffffffffffffffffffffffffff168373ffffffffffffffffffffffffffffffffffffffff161415610ec4576040517f08c379a0000000000000000000000000000000000000000000000000000000008152600401610ebb90611ea4565b60405180910390fd5b600073ffffffffffffffffffffffffffffffffffffffff168273ffffffffffffffffffffffffffffffffffffffff161415610f34576040517f08c379a0000000000000000000000000000000000000000000000000000000008152600401610f2b90611d84565b60405180910390fd5b610f3f8383836113f0565b60008060008573ffffffffffffffffffffffffffffffffffffffff1673ffffffffffffffffffffffffffffffffffffffff16815260200190815260200160002054905081811015610fc5576040517f08c379a0000000000000000000000000000000000000000000000000000000008152600401610fbc90611e24565b60405180910390fd5b8181036000808673ffffffffffffffffffffffffffffffffffffffff1673ffffffffffffffffffffffffffffffffffffffff16815260200190815260200160002081905550816000808573ffffffffffffffffffffffffffffffffffffffff1673ffffffffffffffffffffffffffffffffffffffff16815260200190815260200160002060008282546110589190612081565b925050819055508273ffffffffffffffffffffffffffffffffffffffff168473ffffffffffffffffffffffffffffffffffffffff167fddf252ad1be2c89b69c2b068fc378daa952ba7f163c4a11628f55a4df523b3ef846040516110bc9190611f44565b60405180910390a36110cf8484846113f5565b50505050565b6110dd610bf5565b73ffffffffffffffffffffffffffffffffffffffff166110fb610834565b73ffffffffffffffffffffffffffffffffffffffff1614611151576040517f08c379a000000000000000000000000000000000000000000000000000000000815260040161114890611e64565b60405180910390fd5b565b600073ffffffffffffffffffffffffffffffffffffffff168273ffffffffffffffffffffffffffffffffffffffff1614156111c3576040517f08c379a00000000000000000000000000000000000000000000000000000000081526004016111ba90611e84565b60405180910390fd5b6111cf826000836113f0565b60008060008473ffffffffffffffffffffffffffffffffffffffff1673ffffffffffffffffffffffffffffffffffffffff16815260200190815260200160002054905081811015611255576040517f08c379a000000000000000000000000000000000000000000000000000000000815260040161124c90611da4565b60405180910390fd5b8181036000808573ffffffffffffffffffffffffffffffffffffffff1673ffffffffffffffffffffffffffffffffffffffff1681526020019081526020016000208190555081600260008282546112ac91906122a2565b92505081905550600073ffffffffffffffffffffffffffffffffffffffff168373ffffffffffffffffffffffffffffffffffffffff167fddf252ad1be2c89b69c2b068fc378daa952ba7f163c4a11628f55a4df523b3ef846040516113119190611f44565b60405180910390a3611325836000846113f5565b505050565b6000600560009054906101000a900473ffffffffffffffffffffffffffffffffffffffff16905081600560006101000a81548173ffffffffffffffffffffffffffffffffffffffff021916908373ffffffffffffffffffffffffffffffffffffffff1602179055508173ffffffffffffffffffffffffffffffffffffffff168173ffffffffffffffffffffffffffffffffffffffff167f8be0079c531659141344cd1fd0a4f28419497f9722a3daafe3b4186f6b6457e060405160405180910390a35050565b505050565b505050565b8280546114069061236d565b90600052602060002090601f016020900481019282611428576000855561146f565b82601f1061144157805160ff191683800117855561146f565b8280016001018555821561146f579182015b8281111561146e578251825591602001919060010190611453565b5b50905061147c9190611480565b5090565b5b80821115611499576000816000905550600101611481565b5090565b60006114b06114ab84612035565b612004565b9050828152602081018484840111156114c857600080fd5b6114d384828561232b565b509392505050565b6000813590506114ea8161244a565b92915050565b600082601f83011261150157600080fd5b813561151184826020860161149d565b91505092915050565b60008135905061152981612461565b92915050565b60006020828403121561154157600080fd5b600061154f848285016114db565b91505092915050565b6000806040838503121561156b57600080fd5b6000611579858286016114db565b925050602061158a858286016114db565b9150509250929050565b6000806000606084860312156115a957600080fd5b60006115b7868287016114db565b93505060206115c8868287016114db565b92505060406115d98682870161151a565b9150509250925092565b600080604083850312156115f657600080fd5b6000611604858286016114db565b92505060206116158582860161151a565b9150509250929050565b60006020828403121561163157600080fd5b600082013567ffffffffffffffff81111561164b57600080fd5b611657848285016114f0565b91505092915050565b60006020828403121561167257600080fd5b60006116808482850161151a565b91505092915050565b611692816122d6565b82525050565b6116a1816122e8565b82525050565b60006116b282612065565b6116bc8185612070565b93506116cc81856020860161233a565b6116d58161242c565b840191505092915050565b60006116ed602383612070565b91507f45524332303a207472616e7366657220746f20746865207a65726f206164647260008301527f65737300000000000000000000000000000000000000000000000000000000006020830152604082019050919050565b6000611753602283612070565b91507f45524332303a206275726e20616d6f756e7420657863656564732062616c616e60008301527f63650000000000000000000000000000000000000000000000000000000000006020830152604082019050919050565b60006117b9602783612070565b91507f4164646974696f6e616c20746f6b656e73206d696e7465642066726f6d20437560008301527f73746f6d65722e000000000000000000000000000000000000000000000000006020830152604082019050919050565b600061181f602683612070565b91507f4f776e61626c653a206e6577206f776e657220697320746865207a65726f206160008301527f64647265737300000000000000000000000000000000000000000000000000006020830152604082019050919050565b6000611885602283612070565b91507f45524332303a20617070726f766520746f20746865207a65726f20616464726560008301527f73730000000000000000000000000000000000000000000000000000000000006020830152604082019050919050565b60006118eb601d83612070565b91507f45524332303a20696e73756666696369656e7420616c6c6f77616e63650000006000830152602082019050919050565b600061192b602683612070565b91507f45524332303a207472616e7366657220616d6f756e742065786365656473206260008301527f616c616e636500000000000000000000000000000000000000000000000000006020830152604082019050919050565b6000611991600e83612070565b91507f546f6b656e73206275726e65642e0000000000000000000000000000000000006000830152602082019050919050565b60006119d1602983612070565b91507f456163682054696d652063616e206f6e6c79206d696e74206e6f74206d6f726560008301527f20313020436f696e7300000000000000000000000000000000000000000000006020830152604082019050919050565b6000611a37602483612070565b91507f4164646974696f6e616c20746f6b656e73206d696e7465642066726f6d204f7760008301527f6e65722e000000000000000000000000000000000000000000000000000000006020830152604082019050919050565b6000611a9d602083612070565b91507f4f776e61626c653a2063616c6c6572206973206e6f7420746865206f776e65726000830152602082019050919050565b6000611add602183612070565b91507f45524332303a206275726e2066726f6d20746865207a65726f2061646472657360008301527f73000000000000000000000000000000000000000000000000000000000000006020830152604082019050919050565b6000611b43602583612070565b91507f45524332303a207472616e736665722066726f6d20746865207a65726f20616460008301527f64726573730000000000000000000000000000000000000000000000000000006020830152604082019050919050565b6000611ba9602183612070565b91507f506c6561736520706c61792067616d6520746f206765742074686520636f696e60008301527f73000000000000000000000000000000000000000000000000000000000000006020830152604082019050919050565b6000611c0f602483612070565b91507f45524332303a20617070726f76652066726f6d20746865207a65726f2061646460008301527f72657373000000000000000000000000000000000000000000000000000000006020830152604082019050919050565b6000611c75602583612070565b91507f45524332303a2064656372656173656420616c6c6f77616e63652062656c6f7760008301527f207a65726f0000000000000000000000000000000000000000000000000000006020830152604082019050919050565b6000611cdb601f83612070565b91507f45524332303a206d696e7420746f20746865207a65726f2061646472657373006000830152602082019050919050565b611d1781612314565b82525050565b611d268161231e565b82525050565b6000602082019050611d416000830184611689565b92915050565b6000602082019050611d5c6000830184611698565b92915050565b60006020820190508181036000830152611d7c81846116a7565b905092915050565b60006020820190508181036000830152611d9d816116e0565b9050919050565b60006020820190508181036000830152611dbd81611746565b9050919050565b60006020820190508181036000830152611ddd81611812565b9050919050565b60006020820190508181036000830152611dfd81611878565b9050919050565b60006020820190508181036000830152611e1d816118de565b9050919050565b60006020820190508181036000830152611e3d8161191e565b9050919050565b60006020820190508181036000830152611e5d816119c4565b9050919050565b60006020820190508181036000830152611e7d81611a90565b9050919050565b60006020820190508181036000830152611e9d81611ad0565b9050919050565b60006020820190508181036000830152611ebd81611b36565b9050919050565b60006020820190508181036000830152611edd81611b9c565b9050919050565b60006020820190508181036000830152611efd81611c02565b9050919050565b60006020820190508181036000830152611f1d81611c68565b9050919050565b60006020820190508181036000830152611f3d81611cce565b9050919050565b6000602082019050611f596000830184611d0e565b92915050565b6000604082019050611f746000830184611d0e565b8181036020830152611f85816117ac565b905092915050565b6000604082019050611fa26000830184611d0e565b8181036020830152611fb381611984565b905092915050565b6000604082019050611fd06000830184611d0e565b8181036020830152611fe181611a2a565b905092915050565b6000602082019050611ffe6000830184611d1d565b92915050565b6000604051905081810181811067ffffffffffffffff8211171561202b5761202a6123fd565b5b8060405250919050565b600067ffffffffffffffff8211156120505761204f6123fd565b5b601f19601f8301169050602081019050919050565b600081519050919050565b600082825260208201905092915050565b600061208c82612314565b915061209783612314565b9250827fffffffffffffffffffffffffffffffffffffffffffffffffffffffffffffffff038211156120cc576120cb61239f565b5b828201905092915050565b6000808291508390505b6001851115612121578086048111156120fd576120fc61239f565b5b600185161561210c5780820291505b808102905061211a8561243d565b94506120e1565b94509492505050565b600061213582612314565b91506121408361231e565b925061216d7fffffffffffffffffffffffffffffffffffffffffffffffffffffffffffffffff8484612175565b905092915050565b6000826121855760019050612241565b816121935760009050612241565b81600181146121a957600281146121b3576121e2565b6001915050612241565b60ff8411156121c5576121c461239f565b5b8360020a9150848211156121dc576121db61239f565b5b50612241565b5060208310610133831016604e8410600b84101617156122175782820a9050838111156122125761221161239f565b5b612241565b61222484848460016120d7565b9250905081840481111561223b5761223a61239f565b5b81810290505b9392505050565b600061225382612314565b915061225e83612314565b9250817fffffffffffffffffffffffffffffffffffffffffffffffffffffffffffffffff04831182151516156122975761229661239f565b5b828202905092915050565b60006122ad82612314565b91506122b883612314565b9250828210156122cb576122ca61239f565b5b828203905092915050565b60006122e1826122f4565b9050919050565b60008115159050919050565b600073ffffffffffffffffffffffffffffffffffffffff82169050919050565b6000819050919050565b600060ff82169050919050565b82818337600083830152505050565b60005b8381101561235857808201518184015260208101905061233d565b83811115612367576000848401525b50505050565b6000600282049050600182168061238557607f821691505b60208210811415612399576123986123ce565b5b50919050565b7f4e487b7100000000000000000000000000000000000000000000000000000000600052601160045260246000fd5b7f4e487b7100000000000000000000000000000000000000000000000000000000600052602260045260246000fd5b7f4e487b7100000000000000000000000000000000000000000000000000000000600052604160045260246000fd5b6000601f19601f8301169050919050565b60008160011c9050919050565b612453816122d6565b811461245e57600080fd5b50565b61246a81612314565b811461247557600080fd5b5056fea2646970667358221220eadafe011752a119a1564066a8cadc6f84682d599f04f79fd009ddea062e93c564736f6c63430008000033",
  "linkReferences": {},
  "deployedLinkReferences": {}
}